S01700004763634170706C69636174696F6E352E7372656357
S11300000C942A000C943F000C943F000C943F0085
S11300100C943F000C943F000C943F000C943F0060
S11300200C943F000C943F000C943F000C943F0050
S11300300C943F000C943F000C943F000C943F0040
S11300400C943F000C943F000C943F000C943F0030
S11300500C943F0011241FBECFE5D8E0DEBFCDBF16
S113006010E0A0E6B0E0E8E1F1E002C005900D92F6
S1130070AA36B107D9F70E9441000C948A000C9467
S11300800000CF93DF93CDB7DEB72A970FB6F8946D
S1130090DEBF0FBECDBF8AE0E0E6F0E0DE011196E0
S11300A001900D928A95E1F78FEF84BB8AB3876044
S11300B08ABBD3988A9881E08BBBDB9A8EE785BB99
S11300C080E02EE7CB9907C025BBD89A8BB3897FF4
S11300D08BBB80E006C0893021F4D8989BB396602E
S11300E09BBB8299EFCF893010F089E0EBCF8F5F13
S11300F0E1E0F0E0EC0FFD1FE80FF11D908195BBEE
S11301003FE34DE093E0315040409040E1F700C0C0
S10B01100000D8CFF894FFCFE2
S10D01187E0CB69ECCDAFA0EFEDE71
S9030000FC
