:100000000C942A000C9434000C9434000C943400AA
:100010000C9434000C9434000C9434000C94340090
:100020000C9434000C9434000C9434000C94340080
:100030000C9434000C9434000C9434000C94340070
:100040000C9434000C9434000C9434000C94340060
:100050000C94340011241FBECFE5D8E0DEBFCDBF25
:100060000E9436000C945F000C9400008AB38760F5
:100070008ABB8AB3877F8ABB81E08BBB8BB38860E6
:100080008BBB80E0CB9907C08BB381608BBB8BB3FC
:10009000897F8BBB80E08C3039F49BB39E7F9BBB08
:1000A0009BB396609BBBEECF8F5F2FE33DE093E069
:1000B000215030409040E1F700C00000E3CFF894B9
:0200C000FFCF70
:00000001FF
